{
  "_format": "hh-sol-artifact-1",
  "contractName": "Staking",
  "sourceName": "contracts/Staking.sol",
  "abi": [
    {
      "inputs": [
        {
          "internalType": "address",
          "name": "_nuke_Token",
          "type": "address"
        }
      ],
      "stateMutability": "nonpayable",
      "type": "constructor"
    },
    {
      "inputs": [],
      "name": "TransferFailed",
      "type": "error"
    },
    {
      "inputs": [],
      "name": "buyToken",
      "outputs": [],
      "stateMutability": "payable",
      "type": "function"
    },
    {
      "inputs": [],
      "name": "claimReward",
      "outputs": [],
      "stateMutability": "nonpayable",
      "type": "function"
    },
    {
      "inputs": [
        {
          "internalType": "address",
          "name": "",
          "type": "address"
        }
      ],
      "name": "depositTime",
      "outputs": [
        {
          "internalType": "uint256",
          "name": "",
          "type": "uint256"
        }
      ],
      "stateMutability": "view",
      "type": "function"
    },
    {
      "inputs": [
        {
          "internalType": "address",
          "name": "",
          "type": "address"
        }
      ],
      "name": "isStaking",
      "outputs": [
        {
          "internalType": "bool",
          "name": "",
          "type": "bool"
        }
      ],
      "stateMutability": "view",
      "type": "function"
    },
    {
      "inputs": [],
      "name": "nuke_Token",
      "outputs": [
        {
          "internalType": "contract TokenNuke",
          "name": "",
          "type": "address"
        }
      ],
      "stateMutability": "view",
      "type": "function"
    },
    {
      "inputs": [],
      "name": "owner",
      "outputs": [
        {
          "internalType": "address",
          "name": "",
          "type": "address"
        }
      ],
      "stateMutability": "view",
      "type": "function"
    },
    {
      "inputs": [
        {
          "internalType": "address",
          "name": "",
          "type": "address"
        }
      ],
      "name": "rewardAmount",
      "outputs": [
        {
          "internalType": "uint256",
          "name": "",
          "type": "uint256"
        }
      ],
      "stateMutability": "view",
      "type": "function"
    },
    {
      "inputs": [],
      "name": "rewardCount",
      "outputs": [],
      "stateMutability": "nonpayable",
      "type": "function"
    },
    {
      "inputs": [
        {
          "internalType": "uint256",
          "name": "_amount",
          "type": "uint256"
        }
      ],
      "name": "stakeToken",
      "outputs": [],
      "stateMutability": "nonpayable",
      "type": "function"
    },
    {
      "inputs": [
        {
          "internalType": "address",
          "name": "",
          "type": "address"
        }
      ],
      "name": "stakersEth",
      "outputs": [
        {
          "internalType": "uint256",
          "name": "",
          "type": "uint256"
        }
      ],
      "stateMutability": "view",
      "type": "function"
    },
    {
      "inputs": [
        {
          "internalType": "address",
          "name": "",
          "type": "address"
        }
      ],
      "name": "stakingBal",
      "outputs": [
        {
          "internalType": "uint256",
          "name": "",
          "type": "uint256"
        }
      ],
      "stateMutability": "view",
      "type": "function"
    },
    {
      "inputs": [],
      "name": "total_Supply",
      "outputs": [
        {
          "internalType": "uint256",
          "name": "",
          "type": "uint256"
        }
      ],
      "stateMutability": "view",
      "type": "function"
    },
    {
      "inputs": [
        {
          "internalType": "uint256",
          "name": "_amount",
          "type": "uint256"
        }
      ],
      "name": "withdraw",
      "outputs": [],
      "stateMutability": "payable",
      "type": "function"
    }
  ],
  "bytecode": "0x608060405234801561001057600080fd5b50604051610b00380380610b0083398101604081905261002f91610062565b6001600081905580546001600160a01b039092166001600160a01b03199283161790556003805490911633179055610092565b60006020828403121561007457600080fd5b81516001600160a01b038116811461008b57600080fd5b9392505050565b610a5f806100a16000396000f3fe6080604052600436106100c15760003560e01c80636f49712b1161007f5780638da5cb5b116100595780638da5cb5b14610245578063a482171914610265578063b88a802f1461026d578063cda6b8471461028257600080fd5b80636f49712b146101c357806379085425146102035780638d8503641461021857600080fd5b8062d56748146100c65780632682b11c146101035780632e1a7d4d1461012757806346c648731461013c578063645a8a56146101695780636babf8a014610196575b600080fd5b3480156100d257600080fd5b506001546100e6906001600160a01b031681565b6040516001600160a01b0390911681526020015b60405180910390f35b34801561010f57600080fd5b5061011960025481565b6040519081526020016100fa565b61013a61013536600461093e565b6102a2565b005b34801561014857600080fd5b50610119610157366004610957565b60076020526000908152604090205481565b34801561017557600080fd5b50610119610184366004610957565b60056020526000908152604090205481565b3480156101a257600080fd5b506101196101b1366004610957565b60046020526000908152604090205481565b3480156101cf57600080fd5b506101f36101de366004610957565b60086020526000908152604090205460ff1681565b60405190151581526020016100fa565b34801561020f57600080fd5b5061013a610466565b34801561022457600080fd5b50610119610233366004610957565b60066020526000908152604090205481565b34801561025157600080fd5b506003546100e6906001600160a01b031681565b61013a6104fa565b34801561027957600080fd5b5061013a610607565b34801561028e57600080fd5b5061013a61029d36600461093e565b610701565b600260005414156102fa5760405162461bcd60e51b815260206004820152601f60248201527f5265656e7472616e637947756172643a207265656e7472616e742063616c6c0060448201526064015b60405180910390fd5b60026000908155338152600660205260409020548111156103505760405162461bcd60e51b815260206004820152601060248201526f2737ba1032b737bab3b4103a37b5b2b760811b60448201526064016102f1565b336000908152600660205260408120805483929061036f90849061099d565b925050819055508060026000828254610388919061099d565b909155505060015460405163a9059cbb60e01b8152336004820152602481018390526000916001600160a01b03169063a9059cbb90604401602060405180830381600087803b1580156103da57600080fd5b505af11580156103ee573d6000803e3d6000fd5b505050506040513d601f19601f8201168201806040525081019061041291906109b4565b905080610432576040516312171d8360e31b815260040160405180910390fd5b61043a610466565b505033600090815260076020908152604080832083905560089091528120805460ff1916905560019055565b3360009081526008602052604090205460ff166104b35760405162461bcd60e51b815260206004820152600b60248201526a4e6f74207374616b696e6760a81b60448201526064016102f1565b3360009081526007602052604081205481906104cf904261099d565b9050606481106104e7576104e46032826109d6565b91505b5033600090815260056020526040902055565b34662386f26fc10000146105505760405162461bcd60e51b815260206004820152601a60248201527f416d6f756e74206d75737420626520302e30312065746865727300000000000060448201526064016102f1565b3360009081526004602052604090205461056b9034906109f8565b3360008181526004602081905260409182902093909355600154905163a9059cbb60e01b815292830191909152606460248301526001600160a01b03169063a9059cbb90604401602060405180830381600087803b1580156105cc57600080fd5b505af11580156105e0573d6000803e3d6000fd5b505050506040513d601f19601f8201168201806040525081019061060491906109b4565b50565b3360009081526008602052604090205460ff16156106595760405162461bcd60e51b815260206004820152600f60248201526e5374696c6c205374616b696e67212160881b60448201526064016102f1565b600154336000818152600560205260409081902054905163a9059cbb60e01b8152600481019290925260248201526001600160a01b039091169063a9059cbb90604401602060405180830381600087803b1580156106b657600080fd5b505af11580156106ca573d6000803e3d6000fd5b505050506040513d601f19601f820116820180604052508101906106ee91906109b4565b5033600090815260056020526040812055565b600260005414156107545760405162461bcd60e51b815260206004820152601f60248201527f5265656e7472616e637947756172643a207265656e7472616e742063616c6c0060448201526064016102f1565b60026000556001546040516370a0823160e01b81523360048201526064916001600160a01b0316906370a082319060240160206040518083038186803b15801561079d57600080fd5b505afa1580156107b1573d6000803e3d6000fd5b505050506040513d601f19601f820116820180604052508101906107d59190610a10565b10156108235760405162461bcd60e51b815260206004820152601a60248201527f4e6f7420656e6f756768207374616b696e672042616c616e636500000000000060448201526064016102f1565b336000908152600760205260408120429055600280548392906108479084906109f8565b9091555050336000908152600660205260408120805483929061086b9084906109f8565b90915550506001546040516323b872dd60e01b8152336004820152306024820152604481018390526000916001600160a01b0316906323b872dd90606401602060405180830381600087803b1580156108c357600080fd5b505af11580156108d7573d6000803e3d6000fd5b505050506040513d601f19601f820116820180604052508101906108fb91906109b4565b90508061091b576040516312171d8360e31b815260040160405180910390fd5b5050336000908152600860205260408120805460ff191660019081179091559055565b60006020828403121561095057600080fd5b5035919050565b60006020828403121561096957600080fd5b81356001600160a01b038116811461098057600080fd5b9392505050565b634e487b7160e01b600052601160045260246000fd5b6000828210156109af576109af610987565b500390565b6000602082840312156109c657600080fd5b8151801515811461098057600080fd5b6000826109f357634e487b7160e01b600052601260045260246000fd5b500490565b60008219821115610a0b57610a0b610987565b500190565b600060208284031215610a2257600080fd5b505191905056fea2646970667358221220060b14e25a902f897289f78e473d1b457a2de21ec2b644738e2a38b4170375d664736f6c63430008090033",
  "linkReferences": {},
  "deployedLinkReferences": {}
}